:020000040800F2
:1080000068060020913D0508D93D05080D2B05089F
:10801000DD3D0508E13D0508E53D050800000000DF
:10802000000000000000000000000000E93D05081D
:10803000ED3D050800000000F13D0508F53D05088F
:10804000F93D0508FD3D0508013E0508053E05080A
:10805000093E05080D3E0508810B0308890B03083E
:10806000910B0308990B0308A10B0308113E0508A7
:10807000153E0508193E05081D3E0508213E050868
:10808000253E0508293E05082D3E0508313E050818
:10809000353E0508393E05083D3E0508A90B030895
:1080A000413E0508453E0508493E05084D3E050888
:1080B000513E0508553E0508593E05085D3E050838
:1080C000613E0508653E0508693E05086D3E0508E8
:1080D000713E050833FC0108753E0508793E050828
:1080E000B10B03087D3E0508813E0508853E050865
:1080F000893E05088D3E0508913E0508953E050818
:10810000993E050855960308D7E403089D3E0508E7
:108110000000000000000000A13E0508A53E050883
:10812000A93E05085BFC010865FC01085D96030893
:10813000AD3E0508B13E0508B53E0508B93E050847
:10814000BD3E0508C13E0508C53E050873CF0108C0
:10815000C93E050847FC010851FC01083DFC010827
:10816000CD3E0508D13E05080000000000000000DB
:1081700000000000000000000000000000000000FF
:10818000D53E0508D93E05080000000000000000AB
:10819000DD3E0508E13E050800000000000000008B
:1081A00000000000000000000000000000000000CF
:1081B000E53E05080000000000000000E93E05085B
:1081C000ED3E050801207047DFF8281AD1F81600A7
:1081D000F021C172DFF81C1AD1F8160000210170DD
:1081E000DFF8101AD1F8160000214170DFF8041AE8
:1081F000086B0021C172DFF8FC19D1F812000021D0
:10820000C1720120704710B5DFF8EC09DFF8EC19F6
:1082100089780C2202FB0104B021200003F0F3FD59
:10822000002805D17FF0030004F082FD002012E059
:10823000DFF8C8090188200004F0C5FE002805D138
:108240007FF0620004F074FD002004E0DFF8A40970
:10825000C0F80E40012010BD38B5DFF89C09DFF8EA
:108260009C1989780C2202FB0104DFF88C09DFF8E5
:108270008C1909780C2202FB0105B021200003F0C3
:10828000C2FD002805D17FF0030004F051FD00205D
:1082900013E0280003F0A2FE0100200004F093FE8A
:1082A000002805D17FF0620004F042FD002004E0C8
:1082B000DFF84009C0F80E40012032BD7CB5DFF880
:1082C0003809DFF8381909780C2202FB0100DFF8C1
:1082D0002819DFF8282992780C2303FB0214DFF811
:1082E0001819DFF8182952780C2303FB0215DFF860
:1082F000101903F073FE0600002E05D17FF03D003B
:1083000004F016FD00202CE0280003F071FDED883C
:10831000C0B2FF2805D17FF0140004F009FD002051
:108320001FE08021200003F06EFD002805D17FF0C2
:10833000030004F0FDFC002013E0012000904D2319
:108340002A0092B2310001A804F0ABFE002805D14A
:108350007FF00C0004F0ECFC002002E001982060AB
:10836000012076BDF0B585B0DFF88C08DFF88C18F9
:1083700009780C2202FB0100DFF87C18DFF87C286A
:1083800092780C2303FB0214DFF86C18DFF86C28DA
:1083900052780C2303FB021503F020FE0600002E8A
:1083A00005D17FF0140004F0C3FC002039E00C215B
:1083B000002202AF380005F03FF8310002A805F0B6
:1083C0000EF8002805D17FF00C0004F0B1FC00206D
:1083D00027E0280003F00CFDFF2805D17FF01400F2
:1083E00004F0A6FC00201CE08321200003F00BFD1C
:1083F000002805D17FF0030004F09AFC002010E073
:10840000287900906B79320002A901A804F09FFE40
:10841000002803D004F08CFC002002E001982060CA
:10842000012005B0F0BD80B55FF0FF3004F080FCA6
:10843000002002BD80B55FF0FF3004F079FC002021
:1084400002BD10B5DFF8B007DFF8B01789780C224D
:1084500002FB0104200004F0EFFD002805D17FF0AD
:10846000620004F065FC002004E0DFF88807C0F833
:108470000E40012010BD38B5DFF87C07DFF87C170F
:1084800009780C2202FB0105DFF86C07DFF86C1796
:1084900089780C2202FB01000468002C05D17FF0D2
:1084A000150004F045FC00201AE0280003F0A0FCB1
:1084B000C0B250280BD0802830D0832811D0FF289C
:1084C00046D17FF0140004F033FC002008E020685F
:1084D000002804D0206805F013F800202060012057
:1084E00032BD2068002818D020680838C1780029DB
:1084F00011D0817800290ED0B0F9000000280AD4EC
:10850000206804F000FE002805D17FF0010004F08F
:108510000FFC0020E4E700202060E0E7206800284E
:1085200015D020680838418800290ED0B0F9000025
:1085300000280AD4206804F0E6FD002805D17FF069
:10854000010004F0F5FB0020CAE700202060C6E728
:1085500028790928C3DB7FF0140004F0E9FB002030
:10856000BEE780B5DFF89416086805F00CFD03F04F
:108570009FFE002805D17FF0620004F0D9FB0020A7
:1085800000E0012002BD80B5DFF87016086805F034
:10859000FAFC03F0ACFE002805D17FF0620004F085
:1085A000C7FB002000E0012002BD10B5DFF848063F
:1085B000DFF8481689780C2202FB0104200003F042
:1085C000B5FE002805D17FF0620004F0B1FB002069
:1085D00004E0DFF82006C0F80E40012010BD10B501
:1085E000DFF81406DFF8141689780C2202FB010468
:1085F000200003F0C2FE002805D17FF0620004F0E5
:1086000097FB002004E0DFF8EC05C0F80E400120E5
:1086100010BD10B5DFF8E005DFF8E01589780C2211
:1086200002FB0104E07A202801D0302810D1206814
:1086300004F0B2FE002805D17FF0620004F078FB60
:1086400000200AE0DFF8AC05C0F80E40012004E08D
:108650007FF03C0004F06CFB002010BD80B55FF0A3
:10866000FF3004F065FB002002BD70B5DFF888051F
:10867000DFF8881509780C2202FB0104DFF8780581
:10868000DFF8781589780C2202FB0105E07A83284F
:1086900005D07FF0140004F04BFB002034E0266886
:1086A000002E05D17FF0150004F042FB00202BE0E6
:1086B000083E002E05D17FF0150004F039FB0020A4
:1086C00022E07068002807D1DFF82815D1F81600DD
:1086D00000210170012017E0B221280003F093FB74
:1086E000002805D17FF0030004F022FB00200BE0FE
:1086F000206828607068401E6860DFF8F814D1F8C0
:10870000160001210170012070BD80B5DFF8E8047A
:10871000DFF8E81489780C2202FB0100C17AB22943
:1087200005D07FF0140004F003FB002020E0016876
:10873000002905D17FF0150004F0FAFA002017E0B7
:108740004168002907D1DFF8AC14D1F816000021E8
:10875000017001200CE00168091D01604168491E9B
:108760004160DFF89014D1F816000121017001205A
:1087700002BD7FB5DFF88004DFF8801489780C2211
:1087800002FB0104DFF874040588002D05D17FF099
:10879000140004F0CDFA002021E00C21002201AEEB
:1087A000300004F049FE290001A804F018FE00285A
:1087B00005D17FF00C0004F0BBFA00200FE0236825
:1087C0002A0001A9684604F064FD002804D00020B6
:1087D00004F0AEFA002002E000982060012004B00E
:1087E00070BD80B5DFF81004DFF8101489780C2212
:1087F00002FB0100A02103F006FB002805D17FF059
:10880000030004F095FA00200EE0DFF8EC03DFF837
:10881000EC1389780C2202FB0100A321C172DFF85E
:10882000DC1309880160012002BD80B5DFF8C803B0
:10883000DFF8C81389780C2202FB0100C17AA32952
:1088400005D07FF01A0004F073FA002004E0DFF88E
:10885000AC1309884180012002BD80B55FF0FF3074
:1088600004F066FA002002BD10B5DFF88C03DFF8D3
:108870008C1389780C2202FB01048221200003F072
:10888000C2FA002805D17FF0030004F051FA00205D
:1088900006E08220E072DFF8640300882060012097
:1088A00010BD80B5DFF85003DFF8501389780C2233
:1088B00002FB0100C17A822905D07FF01A0004F082
:1088C00037FA002004E0DFF83413098841800120E2
:1088D00002BD10B5C848C94989780C2202FB0104C1
:1088E000C221200003F08FFA002805D17FF0030099
:1088F00004F01EFA00200CE0C220E072002020608C
:10890000BE4840786071BD48007820710020E0804A
:10891000012010BD10B5B848B84989780C2202FB77
:108920000104C221200003F06EFA002805D17FF077
:10893000030004F0FDF900200BE0C220E0720020EB
:1089400020604D20607104202071AC480088E080D8
:10895000012010BD38B5A848A84909780C2202FBAF
:108960000104A548A54989780C2202FB01050021D4
:10897000280003F048FA002805D17FF0030004F036
:10898000D7F9002012E0E07A803810D02138022890
:1089900004D9001F02D00C3803280DD8E07AE87201
:1089A000206828609348C0F80E50012032BDA220F4
:1089B000E87220682860F5E77FF01A0004F0B8F943
:1089C0000020F3E710B58C488C4989780C2202FB13
:1089D00001048948894909780C2202FB010003F04F
:1089E000FDFAE17AA1290CD0A22914D0A32918D02C
:1089F000B12906D0B2290ED0B32902D0B4290AD0A9
:108A000013E0A121E1722168401820607948C0F884
:108A10000E40012010BDA221E172216840182060A3
:108A2000F4E7216840182060F0E77FF0620004F06E
:108A30007FF90020EEE780B56F48704989780C22F5
:108A400002FB01006D490988C27AA12A0CD0A22A32
:108A500014D0A32A18D0B12A06D0B22A0ED0B32A35
:108A600002D0B42A0AD013E0A122C2720268891887
:108A700001606049C1F80E00012002BDA222C2724D
:108A8000026889180160F4E7026889180160F0E75C
:108A90007FF0620004F04CF90020EEE770B5564814
:108AA000564909780C2202FB01005349534A927837
:108AB0000C2303FB02145049504A52780C2303FB49
:108AC00002160568002D05D17FF0150004F030F97D
:108AD00000208EE0300003F08BF9C0B20100502975
:108AE00044D0602931D061290DD062291CD0802961
:108AF0004BD0832949D0FF2957D17FF0140004F0CF
:108B000017F9002075E06121200003F07CF90028AE
:108B100005D17FF0030004F00BF9002069E028681C
:108B200060600020206063E06221200003F06BF9A8
:108B3000002805D17FF0030004F0FAF8002058E087
:108B4000002060602868206052E06021200003F06F
:108B50005AF9002805D17FF0030004F0E9F800205D
:108B600047E0686860602868206041E05D2120007F
:108B700003F049F9002805D17FF0030004F0D8F88C
:108B8000002036E02868206032E00100C9B22000F1
:108B900003F039F9002805D17FF0030004F0C8F88C
:108BA000002026E02868206022E03179092905DBD1
:108BB0007FF0140004F0BCF800201AE00100C9B2F4
:108BC000200003F020F9002805D17FF0030004F015
:108BD000AFF800200DE000202060002004E0C0B2CB
:108BE000415DC0B20155401C3179C0B28842F6D314
:108BF000012070BD90B9032038AB0320B4C5032019
:108C000010AC03202DE9FC41DFF81C0CDFF8A41C9C
:108C100009780C2202FB0106DFF80C0CDFF8941C2B
:108C200089780C2202FB0100DFF8FC1BDFF8842CA2
:108C300052780C2303FB02140568002D05D17FF048
:108C4000150004F075F8002012E2200003F0D0F8BF
:108C50002179092905DB7FF0140004F069F8002070
:108C600006E2C0B20100102924D020292BD03029DF
:108C700064D0402900F09D80482900F0DF80502911
:108C800000F06181602900F04781612900F01D81B9
:108C9000622900F02D81802900F0C881832900F02D
:108CA000C581FF2940F0DE817FF0140004F040F818
:108CB0000020DDE13078002802D00120287001E09A
:108CC00000202870D3E1F07A20380ED0103814D06C
:108CD000103815D008381AD05938022825D9001F65
:108CE00023D00C38032820D922E030680090227964
:108CF0006946280005F04AF9B9E130680090F6E7C6
:108D0000306800EE100A05F07CF90090EFE7326859
:108D1000736843EC102B51EC100B05F043FA00EE96
:108D2000100A05F06EF90090E1E730680090DEE788
:108D30007FF03E0003F0FCFF002099E1F07A20383C
:108D40000ED0103814D0103815D008381AD0593831
:108D5000022825D9001F23D00C38032820D922E06F
:108D60003068009022796946280005F00FF97EE10D
:108D700030680090F6E7306800EE100A05F041F91F
:108D80000090EFE73268736843EC102B51EC100B46
:108D900005F008FA00EE100A05F033F90090E1E75B
:108DA00030680090DEE77FF03E0003F0C1FF002056
:108DB0005EE1F07A20380ED0103819D010381FD06C
:108DC000083823D0593802282AD9001F28D00C3857
:108DD000032825D92CE0306800EE100AB8EEC00A4E
:108DE0008DED000A22796946280005F0CFF83EE1B2
:108DF000306800EE100AB8EE400A8DED000AF1E787
:108E0000306800EE100A8DED000AEBE732687368F7
:108E100043EC102B51EC100B05F0C4F90090E1E786
:108E2000306800EE100AB8EE400A8DED000AD9E76E
:108E30007FF03E0003F07CFF002019E1F07A20383B
:108E40000ED0103818D010381DD0083826D0593818
:108E500002282DD9001F2BD00C38032828D92EE04A
:108E600030686E4605F0E6F9306071602279694637
:108E7000280005F08BF8FAE030686E4605F0E4F95A
:108E800030607160F2E7306800EE100A6E4610EE56
:108E9000100A05F0E7F930607160E7E7326873683F
:108EA00043EC102B684653EC102B02604360DDE767
:108EB00030686E4605F0C8F930607160D6E77FF023
:108EC0003E0003F035FF0020D2E0F07A002803D006
:108ED0006038012803D905E000202860C7E07068E9
:108EE0002860FBE77FF03E0003F022FF0020BFE098
:108EF000F07A002804D0602805D0622803D005E06D
:108F000000202860B3E030682860FBE77FF03E0077
:108F100003F00EFF0020ABE0F07A002803D06038A9
:108F2000022805D909E000206860002028609EE042
:108F30007068686030682860F9E77FF03E0003F0F1
:108F4000F7FE002094E0300002F084FF002802D0F9
:108F50003468002709E0002004F02AFB0400220006
:108F60000121300003F0E0F80127D5F80080F07A05
:108F70005F2806D0FFB2012F03D0B4F9000000280B
:108F80002ED5B8F1000F0DD098F80200E178884294
:108F900008D0B8F90000002804D4404604F0B0FA24
:108FA0005FF00008B8F1000F12D1E07804F092FAF7
:108FB0008046B8F1000F05D17FF0010003F0B8FE44
:108FC000002055E0B8F80000401CA8F8000002E0BE
:108FD000404604F0CDFB2100404604F063FC1CE059
:108FE000B8F1000F08D0B8F90000002804D44046BA
:108FF00004F086FA5FF00008B8F1000F06D1A04631
:10900000B8F80000401CA8F8000006E0404604F054
:10901000AFFB2100404604F045FCC5F80080FFB2DC
:10902000002F02D0200004F044FB20E0F17AC0B20F
:10903000814211D130682860306800280BD0306838
:1090400008384168002906D0B0F90010002902D480
:109050000188491C01800AE07FF0140003F068FEDB
:10906000002005E022793100280004F08FFF012064
:10907000BDE8F68170B5DFF8B007DFF83818097879
:109080000C2202FB0104DFF8A007DFF8281889781A
:109090000C2202FB0105DFF89007DFF81818497869
:1090A0000C2202FB0106300002F0A2FEC0B2FF2833
:1090B00005D17FF0140003F03BFE00200DE0DFF847
:1090C000E80C4563C220E8722068286070796871F6
:1090D00030792871F088E880012070BD80B55FF09C
:1090E000FF3003F025FE002002BD38B5DFF8380759
:1090F000DFF8C01709780C2202FB0104DFF828070B
:10910000DFF8B01789780C2202FB0105DFF8180799
:10911000DFF8A01749780C2202FB010002F068FE7C
:10912000C0B2FF2805D17FF0140003F001FE00203B
:1091300023E021886088DFF8702CC2F83A10DFF84D
:10914000681CC1F83E500121DFF85C2C82F8381011
:10915000DFF860178978DFF8502C82F8391080B278
:1091600005F0D2F90100002902D08047012004E077
:109170007FF0280003F0DCFD002032BD38B5DFF8B9
:10918000A806DFF8301709780C2202FB0104DFF88B
:109190009806DFF8201789780C2202FB0105DFF81A
:1091A0008806DFF8101749780C2202FB010002F054
:1091B0001FFEC0B2FF2805D17FF0140003F0B8FDF8
:1091C000002023E029886888DFF8DC2BC2F83A10F9
:1091D000DFF8D41BC1F83E400121DFF8CC2B82F828
:1091E0003810DFF8D0160978DFF8BC2B82F8391078
:1091F00080B205F089F90100002902D080470120E2
:1092000004E07FF0280003F093FD002032BD38B564
:10921000DFF81406DFF8781909780C2202FB010147
:10922000DFF80406DFF8682992780C2303FB0204B8
:10923000DFF8F405DFF8582952780C2303FB02000D
:109240000D68002D05D17FF0150003F071FD0020A1
:1092500021E002F0CDFDC0B2802807D0FF2815D153
:109260007FF0140003F064FD002014E08021200052
:1092700002F0C9FD002805D17FF0030003F058FD7E
:10928000002008E028682060012004E07FF014003E
:1092900003F04EFD002032BD80B55FF0FF3003F0DB
:1092A00047FD002002BD70B5DFF87C05DFF8E0184F
:1092B00009780C2202FB0100DFF86C15DFF8D028DA
:1092C00092780C2303FB0214DFF85C15DFF8C0284A
:1092D00052780C2303FB02160568002D05D17FF0A0
:1092E000150003F025FD00205DE0300002F080FD58
:1092F000C0B2010050290BD0802920D083291ED074
:10930000FF292CD17FF0140003F012FD00204AE069
:109310005F21200002F077FD002805D17FF00300D7
:1093200003F006FD00203EE0206804F021FA2868E2
:10933000002803D02968206804F0B4FA32E0010064
:10934000C9B2200002F05FFD002805D17FF00300C4
:1093500003F0EEFC002026E02868206022E031794E
:10936000092905DB7FF0140003F0E2FC00201AE07D
:109370000100C9B2200002F046FD002805D17FF0AF
:10938000030003F0D5FC00200DE000202060002049
:1093900004E0C0B2415DC0B20155401C3179C0B299
:1093A0008842F6D3012070BD70B5DFF87C04DFF889
:1093B000E01709780C2202FB0105DFF86C04DFF8E6
:1093C000D01789780C2202FB0100DFF85C14DFF86B
:1093D000C02752780C2303FB02160468002C05D129
:1093E0007FF0150003F0A4FC002045E0300002F0FF
:1093F000FFFCC0B2010050290BD080291DD0832969
:109400001BD0FF2926D17FF0140003F091FC00202F
:1094100032E0E87A5D280AD12868002806D028685A
:10942000B0F90000002801D42868206023E07FF014
:10943000140003F07DFC00201EE0E97AC0B28142F6
:1094400002D12868206016E07FF0140003F070FC61
:10945000002011E03079092805DB7FF0140003F0CB
:1094600067FC002008E0002002E0415D0155401C3F
:1094700031798842F9DB012070BDF8B5DFF8A80327
:10948000DFF80C1709780C2202FB0104DFF89803BF
:10949000DFF8FC1689780C2202FB0105DFF888034F
:1094A000DFF8EC1649780C2202FB01062068002840
:1094B00005D17FF0150003F03BFC002048E03000B0
:1094C00002F096FC0700FFB2FF2F05D17FF01400D9
:1094D00003F02EFC00203BE0FFB2502F00D15F27AD
:1094E0003900C9B2280002F08EFC002805D17FF0B7
:1094F000030003F01DFC00202AE0FFB25F2F0BD118
:109500002968206803F0EAFB002820D17FF0620080
:1095100003F00EFC00201BE03079092811DA00204E
:10952000286022680120009033792900002003F090
:1095300013FC00280BD17FF0620003F0F9FB002040
:1095400006E07FF0010003F0F3FB002000E00120C3
:10955000F2BD10B5B448DFF8381609780C2202FBCA
:109560000104B148DFF8281689780C2202FB0100BB
:10957000AD48DFF81C1649780C2202FB010002F00E
:1095800037FCC0B2FF2805D17FF0140003F0D0FBF8
:10959000002001E02068002010BD38B5A248C54970
:1095A00009780C2202FB01049F48C24989780C22E9
:1095B00002FB01059C48BF4949780C2202FB0100CF
:1095C00002F016FCC0B2FF2805D17FF0140003F0B2
:1095D000AFFB002022E021886088DFF8282BC2F84A
:1095E0003A10DFF8201BC1F83E500121DFF8142BA0
:1095F00082F83810AF498978DFF8082B82F83910E3
:1096000080B204F081FF0100002902D080470120D0
:1096100004E07FF0280003F08BFB002032BD38B55A
:109620008148A44909780C2202FB01047E48A14923
:1096300089780C2202FB01057B489E4949780C225F
:1096400002FB010002F0D4FBC0B2FF2805D17FF07D
:10965000140003F06DFB002022E029886888DFF801
:10966000A42AC2F83A10DFF89C1AC1F83E40012142
:10967000DFF8902A82F838108E490978DFF8842ABA
:1096800082F8391080B204F03FFF0100002902D0B7
:109690008047012004E07FF0280003F049FB002010
:1096A00032BD38B56048834909780C2202FB0104B9
:1096B0005D48804989780C2202FB01055A487D49A2
:1096C00049780C2202FB010002F092FBC0B2FF2895
:1096D00005D17FF0140003F02BFB002021E020884F
:1096E000DFF8C416C1F83A00DFF8BC06C0F83E50F7
:1096F0000120DFF8B41681F838006E488078DFF872
:10970000A81681F83900DFF8001A0868010000295E
:1097100002D08047012004E07FF0280003F008FB1E
:10972000002032BD38B54048624909780C2202FB5E
:1097300001043D485F4989780C2202FB01053A4843
:109740005C4949780C2202FB010002F051FBC0B2D7
:10975000FF2805D17FF0140003F0EAFA002021E091
:109760002888DFF84416C1F83A00DFF83C06C0F854
:109770003E400120DFF8301681F838004D4800786F
:10978000DFF8241681F83900DFF87C1948680100F9
:10979000002902D08047012004E07FF0280003F078
:1097A000C7FA002032BD38B51F48424909780C225B
:1097B00002FB01041C483F4989780C2202FB010589
:1097C00019483C4949780C2202FB010002F010FBC9
:1097D000C0B2FF2805D17FF0140003F0A9FA0020E1
:1097E00021E02088DFF8C015C1F83A00DFF8B8059D
:1097F000C0F83E500120DFF8B01581F838002D4840
:109800008078DFF8A41581F83900DFF8FC18886843
:109810000100002902D08047012004E07FF02800E9
:1098200003F086FA002032BD38AB032038B5DFF8EC
:10983000DC08204909780C2202FB0104DFF8CC087F
:109840001C4989780C2202FB0105DFF8C008194980
:1098500049780C2202FB010002F0CAFAC0B2FF28CC
:1098600005D17FF0140003F063FA002021E028887E
:10987000DFF83415C1F83A00DFF82C05C0F83E4097
:109880000120DFF8241581F838000A480078DFF855
:10989000181581F83900DFF87018C8680100002930
:1098A00002D08047012004E07FF0280003F040FA56
:1098B000002032BDB4C5032070B582B00025DFF8AA
:1098C0004C08B34909780C2202FB0100DFF83C1870
:1098D000AF4A92780C2303FB0216C17AA32906D063
:1098E0007FF0170003F024FA2800C0B232E0DFF85E
:1098F000141891F82D105F2911D1026800200090F2
:10990000DFF80008C38D211D012003F025FADFF8E0
:10991000F407C08DE0705F20F072012514E0DFF8DD
:10992000E417C98D05290FDADFF8D81791F82D1043
:10993000F172026800200090DFF8C807C38D310083
:10994000012003F009FA0125DFF8B807C0F80E601E
:109950002800C0B276BD70B582B00025DFF8AC0734
:109960008B4909780C2202FB0101DFF8A007884A25
:1099700092780C2303FB0206F07AA32806D07FF02E
:10998000170003F0D5F92800C0B22AE0DFF8740709
:1099900090F82D005F280FD1326800200090DFF88A
:1099A0006407C38D211D012003F0D6F9DFF85407A9
:1099B000C08DE07001250EE0DFF84807C08D052856
:1099C00009DA326800200090DFF83807C38D0120E3
:1099D00003F0C2F90125DFF82C07C0F80E6028005B
:1099E000C0B276BD10B5DFF82407694989780C222A
:1099F00002FB01041021200002F005FA002805D125
:109A00007FF0030003F094F9002007E0604800882D
:109A10002070DFF8F006C0F80E40012010BD80B5C0
:109A20005FF0FF3003F084F9002002BD10B5DFF8CD
:109A3000DC06574989780C2202FB01042021200012
:109A400002F0E1F9002805D17FF0030003F070F97E
:109A5000002009E04E480088208000206080DFF868
:109A6000A406C0F80E40012010BD80B5DFF89C06AA
:109A7000474989780C2202FB0100C17A202905D0D0
:109A80007FF0030003F054F9002007E04049098803
:109A90004180DFF87016C1F80E00012002BD10B53C
:109AA000DFF868063A4989780C2202FB010440215C
:109AB000200002F0A8F9002805D17FF0030003F090
:109AC00037F9002009E032480088208000206080BB
:109AD000DFF83006C0F80E40012010BD80B5DFF879
:109AE0002C062B4989780C2202FB0100C17A4029FF
:109AF00005D07FF0030003F01BF900200DE024499E
:109B0000098841800168002901D0012100E000217D
:109B1000DFF8F015C1F80E00012002BD10B5DFF826
:109B2000EC051B4989780C2202FB0104302120003E
:109B300002F069F9002805D17FF0030003F0F8F87E
:109B4000002009E012480088208000206080DFF8B3
:109B5000B405C0F80E40012010BD80B5DFF8AC059B
:109B60000B4989780C2202FB0100C17A302905D00B
:109B70007FF0030003F0DCF8002007E004490988C7
:109B80004180DFF88015C1F80E00012002BD000001
:109B9000B4C5032080B55FF0FF3003F0C9F80020A2
:109BA00002BD10B5DFF86405DFF8781B89780C2258
:109BB00002FB01046021200002F025F9002805D1F4
:109BC0007FF0030003F0B4F800200AE0DFF8540B44
:109BD0000088A0800020E080DFF82805C0F80E4053
:109BE000012010BD80B5DFF82405DFF8381B897827
:109BF0000C2202FB0100C17A602905D07FF003002E
:109C000003F096F8002008E0DFF8181B0988C180EF
:109C1000DFF8F014C1F80E00012002BD10B5DFF826
:109C2000EC04DFF8001B89780C2202FB01046021A0
:109C3000200002F0E8F8002805D17FF0030003F0CF
:109C400077F800200AE0DFF8DC0A00882080002096
:109C50006080DFF8B004C0F80E40012010BD80B570
:109C6000DFF8A804DFF8BC1A89780C2202FB010097
:109C7000C17A602905D07FF0030003F059F8002075
:109C80000AE06221C172DFF89C1A09884180DFF87E
:109C90007414C1F80E00012002BD80B55FF0FF30E2
:109CA00003F046F8002002BD10B5DFF86004DFF8CD
:109CB000741A89780C2202FB01045221200002F060
:109CC000A2F8002805D17FF0030003F031F800204E
:109CD00008E0DFF8500A00882080DFF82804C0F888
:109CE0000E40012010BD80B55FF0FF3003F020F87A
:109CF000002002BD80B55FF0FF3003F019F80020AE
:109D000002BD70B5DFF80404DFF8181A09780C22D8
:109D100002FB0104DFF8F403DFF8081A89780C224B
:109D200002FB0105280002F095F800280CD1002064
:109D300003F03EFC060032000121280002F0F4F995
:109D40005F20E8722E6002E0280002F095FA200001
:109D500002F080F8002804D02168286803F0A2FDF2
:109D600004E02A680021200002F0DEF9012070BD25
:109D700010B5DFF89803DFF8AC1989780C2202FBE4
:109D800001040021200002F03EF8002805D17FF0F8
:109D9000030002F0CDFF002004E0DFF86803C0F804
:109DA0000E40012010BD000090B9032038B5DFF847
:109DB0005C03DFF8701909780C2202FB0104DFF85C
:109DC0004C03DFF8601989780C2202FB0105E17A67
:109DD000280002F018F8002805D17FF0030002F0F7
:109DE000A7FF002013E0E87A5F280AD1286803F073
:109DF000BFFC2068002806D02168286803F052FDC7
:109E000001E020682860BF48C0F80E50012032BD34
:109E100010B5BE48DFF80C1989780C2202FB01044A
:109E2000E07A10380DD0103812D0103828D0103801
:109E300015D0103832D0801E23D00B3802282DD9EF
:109E40003FE001202070AF48C0F80E40012010BD57
:109E50002068002802D5206840422060F3E720688F
:109E600000EE100AB5EE400AF1EE10FA07D52068B0
:109E700000EE100AB1EE400A10EE100A2060E2E790
:109E8000E1E76078002808D12078612805DB207898
:109E90007A2802DB207820382070D4E7200002F0F6
:109EA000EBF9002805D17FF0030002F041FF00200C
:109EB000CDE72068002803D02068012103F091FD40
:109EC000C1E77FF03F0002F033FF0020BFE710B58D
:109ED0008E48DFF8501889780C2202FB0104E07AE2
:109EE00010380DD0103812D0103814D0103816D0C9
:109EF00010382AD0801E1BD00B38022825D937E015
:109F0000002020707F48C0F80E40012010BD20685E
:109F100040422060F6E7206840422060F2E7206877
:109F200000EE100AB1EE400A10EE100A2060E9E7D8
:109F30006078002808D12078412805DB20785A284D
:109F400002DB207820302070DCE7200002F094F95A
:109F5000002805D17FF0030002F0EAFE0020D5E7DB
:109F60002068002803D02068022103F03AFDC9E7E9
:109F70007FF03F0002F0DCFE0020C7E710B5634829
:109F8000DFF8A01789780C2202FB0104200001F001
:109F900061FF002805D07FF0140002F0C9FE002008
:109FA0001EE0E07A203814D010381AD010381CD0B7
:109FB00012383BD00E382FD0401E21D0401E25D065
:109FC0003F3802282ED9001F2CD00C38032829D95D
:109FD00030E02068401C20604A48C0F80E40012054
:109FE00010BD2068401C2060F6E7206800EE100AD3
:109FF000F7EE000A30EE200A10EE100A2060EBE7C0
:10A000006068401C04F01EFD6060E5E72068401CAD
:10A0100004F062FD2060DFE72068401C04F05CFD76
:10A020002060D9E72068401C2060D5E72088401CCC
:10A030002080D1E77FF03F0002F07AFE0020CFE7DA
:10A0400010B53248DFF8DC1689780C2202FB0104D7
:10A05000200001F0FFFE002805D07FF0140002F080
:10A0600067FE00201EE0E07A203814D010381AD0A5
:10A0700010381CD012383BD00E382FD0401E21D0C3
:10A08000401E25D03F3802282ED9001F2CD00C3876
:10A09000032829D930E02068401E20601948C0F804
:10A0A0000E40012010BD2068401E2060F6E72068A9
:10A0B00000EE100AFFEE000A30EE200A10EE100A41
:10A0C0002060EBE76068401E04F0BCFC6060E5E7E0
:10A0D0002068401E04F000FD2060DFE72068401E7D
:10A0E00004F0FAFC2060D9E72068401E2060D5E724
:10A0F0002088401E2080D1E77FF03F0002F018FE4C
:10A100000020CFE790B9032014C3032038AB03200D
:10A1100038B5DFF8D00BDFF80C1609780C2202FBFB
:10A120000105DFF8C00BDFF8FC1589780C2202FB73
:10A130000104200001F08EFE002804D1280001F067
:10A1400089FE002805D07FF0140002F0F1FD002008
:10A1500045E0E07A20381AD0103841D0103867D066
:10A16000123800F04E810E3800F0EF80401E6BD0A8
:10A17000401E00F0A6803F38022840F23B81001FBD
:10A1800000F038810C38032840F2348140E1E87A4D
:10A19000202804D0302802D0402805D014E02068C0
:10A1A00029680818206015E04020E072206800EE61
:10A1B000100A286800EE900AB8EEC00A30EE200AB5
:10A1C00010EE100A206005E0280001F0C4FE2168AE
:10A1D00040182060DFF8A40CC0F80E40012032BD0A
:10A1E000E87A202804D0302802D0402807D016E092
:10A1F0002020E072206829680818206017E04020BD
:10A20000E072206800EE100A286800EE900AB8EEAE
:10A21000400A30EE200A10EE100A206007E02020ED
:10A22000E072280001F097FE216840182060D1E715
:10A23000280001F017FF206800EE900A30EE800A37
:10A2400010EE100A2060C5E7E87A20281CD03028DC
:10A2500021D0402826D0482824D0602806D0622863
:10A2600029D16020E07228682060B3E76868002880
:10A2700004D16020E07228682060F6E77FF03F009C
:10A2800002F056FD0020AAE760682968081804F06B
:10A29000D9FB6060E9E760682968081804F0D2FB20
:10A2A0006060E2E7280001F056FE6168401804F0A3
:10A2B000C9FB6060D9E77FF03F0002F039FD002064
:10A2C0008DE7E87A202823D0302828D040282DD0C8
:10A2D00048282BD0602810D0612802D0622805D0F1
:10A2E0002DE06020E0726868606073E7206829688C
:10A2F000081804F0F1FB2060F7E76020E07268685E
:10A30000606020682968081804F0E6FB2060ECE72C
:10A3100020682968081804F0DFFB2060E5E7206862
:10A320002968081804F0D8FB2060DEE7280001F057
:10A3300012FE2168401804F0CFFB2060D5E77FF0C3
:10A340003F0002F0F5FC002049E7E87A202834D0ED
:10A35000302839D040283ED048283CD0602817D03B
:10A36000612802D062280CD03EE06068002802D14B
:10A37000686860602EE77FF03F0002F0D9FC0020A3
:10A380002DE720682968081804F0A6FB2060F1E793
:10A390006068002808D1686860602068296808182B
:10A3A00004F09AFB2060E5E768680028F5D07FF0AC
:10A3B0003F0002F0BDFC002011E720682968081862
:10A3C00004F08AFB2060D5E720682968081804F0AB
:10A3D00083FB2060CEE7280001F0BDFD2168401816
:10A3E00004F07AFB2060C5E77FF03F0002F0A0FC9C
:10A3F0000020F4E6280001F0F1FD216840182060FB
:10A40000E8E6280001F0A7FD218840182080E1E659
:10A410007FF03F0002F08CFC0020E0E638B5DFF86A
:10A42000C408C04909780C2202FB0105DFF8B40812
:10A43000BC4989780C2202FB0104200001F00AFDCE
:10A44000002804D1280001F005FD002805D07FF088
:10A45000140002F06DFC002045E0E07A20381AD0AC
:10A46000103841D0103867D0123800F04E810E38C5
:10A4700000F0EF80401E6BD0401E00F0A6803F38F9
:10A48000022840F23B81001F00F038810C3803287D
:10A4900040F2348140E1E87A202804D0302802D00C
:10A4A000402805D014E020682968401A206015E093
:10A4B0004020E072206800EE100A286800EE900A42
:10A4C000B8EEC00A30EE600A10EE100A206005E017
:10A4D000280001F040FD2168081A2060DFF89C097F
:10A4E000C0F80E40012032BDE87A202804D0302880
:10A4F00002D0402807D016E02020E07220682968AA
:10A50000401A206017E04020E072206800EE100A38
:10A51000286800EE900AB8EE400A30EE600A10EEAD
:10A52000100A206007E02020E072280001F013FDEF
:10A530002168081A2060D1E7280001F093FD206807
:10A5400000EE900A30EEC00A10EE100A2060C5E757
:10A55000E87A20281CD0302821D0402826D048284E
:10A5600024D0602806D0622829D16020E0722868B3
:10A570002060B3E76868002804D16020E072286892
:10A580002060F6E77FF03F0002F0D2FB0020AAE750
:10A5900060682968401A04F055FA6060E9E760686D
:10A5A0002968401A04F04EFA6060E2E7280001F0E2
:10A5B000D2FC6168081A04F045FA6060D9E77FF0C0
:10A5C0003F0002F0B5FB00208DE7E87A202823D079
:10A5D000302828D040282DD048282BD0602810D0F3
:10A5E000612802D0622805D02DE06020E072686802
:10A5F000606073E720682968401A04F06DFA2060F3
:10A60000F7E76020E0726868606020682968401A97
:10A6100004F062FA2060ECE720682968401A04F030
:10A620005BFA2060E5E720682968401A04F054FAD4
:10A630002060DEE7280001F08EFC2168081A04F093
:10A640004BFA2060D5E77FF03F0002F071FB00205D
:10A6500049E7E87A202834D0302839D040283ED045
:10A6600048283CD0602817D0612802D062280CD03E
:10A670003EE06068002802D1686860602EE77FF0E5
:10A680003F0002F055FB00202DE720682968401AA2
:10A6900004F022FA2060F1E76068002808D16868B9
:10A6A000606020682968401A04F016FA2060E5E727
:10A6B00068680028F5D07FF03F0002F039FB0020E9
:10A6C00011E720682968401A04F006FA2060D5E7EF
:10A6D00020682968401A04F0FFF92060CEE72800BE
:10A6E00001F039FC2168081A04F0F6F92060C5E78A
:10A6F0007FF03F0002F01CFB0020F4E6280001F090
:10A700006DFC2168081A2060E8E6280001F023FCAF
:10A710002188081A2080E1E67FF03F0002F008FB64
:10A720000020E0E6B4C5032038B5DFF8B805DFF84F
:10A73000CC1B09780C2202FB0105DFF8A805DFF825
:10A74000BC1B89780C2202FB0104200001F082FB73
:10A75000002804D1280001F07DFB002805D07FF0FF
:10A76000140002F0E5FA00203AE0E07A20380ED03A
:10A77000103836D010385DD012386FD04F380228DC
:10A7800064D9001F62D00C3803285FD96EE0E87AE4
:10A79000202804D0302802D0402805D014E02068BA
:10A7A00029684843206016E04020E072206800EEEF
:10A7B000100A286800EE900AB8EEC00A20EE200ABF
:10A7C00010EE100A206006E0280001F0C4FB2168AA
:10A7D00000FB01F02060DFF8A406C0F80E40012065
:10A7E00032BDE87A202804D0302802D0402807D093
:10A7F00016E02020E072206829684843206018E0B5
:10A800004020E072206800EE100A286800EE900AEE
:10A81000B8EE400A20EE200A10EE100A206008E090
:10A820002020E072280001F096FB216800FB01F077
:10A830002060D0E7280001F015FC206800EE900AA7
:10A8400020EE800A10EE100A2060C4E7280001F014
:10A85000C5FB216800FB01F02060BCE7280001F087
:10A860007AFB218811FB00F02080B4E77FF03F00E5
:10A8700002F05EFA0020B3E738B52DED028BDFF869
:10A880006404DFF8781A09780C2202FB0105DFF86E
:10A890005404DFF8681A89780C2202FB01042000B6
:10A8A00001F0D8FA002804D1280001F0D3FA0028DA
:10A8B00005D07FF0140002F03BFA002051E0E07A6E
:10A8C00020380ED010380CD010384DD0123869D046
:10A8D0004F3802285ED9001F5CD00C38032859D9A4
:10A8E00068E0280001F0BEFBB0EE408AB5EE408A79
:10A8F000F1EE10FA04D0200001F0B4FB80EE088ADB
:10A90000B0EE480A03F08BFBB5EE400AF1EE10FA08
:10A910001DD1E87A202804D0302802D0402808D061
:10A920000DE02020E072B0EE480A03F06AFB2060E0
:10A9300012E04020E07218EE100A20600CE02020A7
:10A94000E072B0EE480A03F05CFB206004E04020B7
:10A95000E07218EE100A2060DFF82005C0F80E4003
:10A960000120BDEC028B32BD280001F07BFBB0EE74
:10A97000408AB5EE408AF1EE10FA08D0206800EE69
:10A98000100A80EE080A10EE100A206001E0002094
:10A990002060E1E7280001F021FB2168B1FBF0F025
:10A9A0002060D9E7280001F0D6FA218891FBF0F069
:10A9B0002080D1E77FF03F0002F0BAF90020D0E715
:10A9C00038B5C848DFF8341909780C2202FB0105B4
:10A9D000C448DFF8281989780C2202FB0104200002
:10A9E00001F038FA002804D1280001F033FA0028D9
:10A9F00005D07FF0140002F09BF9002045E0E07ADA
:10AA000020380ED010380CD010383FD0123855D026
:10AA10004F38022848D9001F46D00C38032843D9A4
:10AA200056E0E87A202804D0302802D040280ED002
:10AA30001DE02868002807D02068296890FBF1F203
:10AA400001FB1200206001E00020206018E040209F
:10AA5000E072286800EE900A206800EE100AB8EE56
:10AA6000C00A03F002FB10EE100A206008E0280084
:10AA700001F071FA216891FBF0F200FB12102060E6
:10AA8000DFF8F803C0F80E40012032BD280001F0C5
:10AA9000E9FAF0EE400A206800EE100A03F0E5FA49
:10AAA00010EE100A2060EBE7280001F097FA216809
:10AAB000B1FBF0F200FB12102060E1E7280001F08A
:10AAC0004AFA218891FBF0F200FB12102080D7E7B0
:10AAD0007FF03F0002F02CF90020D6E738B581481E
:10AAE000DFF8181809780C2202FB01057D48DFF811
:10AAF0000C1889780C2202FB0104200001F0AAF94D
:10AB0000002804D1280001F0A5F9002805D07FF025
:10AB1000140002F00DF9002029E0E07A20380ED070
:10AB2000103825D010382BD012384ED04F3802288C
:10AB300043D9001F41D00C3803283ED94DE020688E
:10AB4000002809D5280001F049FA2168494211FA84
:10AB500000F04042206006E0280001F03FFA216842
:10AB600011FA00F02060C548C0F80E40012032BD47
:10AB7000280001F033FA216811FA00F02060F2E7B2
:10AB80002020E072206800EE100A03F03AFA2060FC
:10AB90002068002809D5280001F020FA21684942E0
:10ABA00011FA00F04042206006E0280001F016FA99
:10ABB000216811FA00F02060D5E7280001F00EFAB4
:10ABC000216811FA00F02060CDE7280001F006FAB4
:10ABD000218811FA00F02080C5E77FF03F0002F0E5
:10ABE000A7F80020C3E738B53E48DFF8101709780A
:10ABF0000C2202FB01053B48DFF8001789780C2284
:10AC000002FB0104200001F025F9002804D12800EE
:10AC100001F020F9002805D07FF0140002F088F838
:10AC2000002027E0E07A20380ED0103823D01038EA
:10AC300028D0123848D04F3802283ED9001F3CD0C7
:10AC40000C38032839D946E02068002808D52800A8
:10AC500001F0C4F92168494201414842206005E001
:10AC6000280001F0BBF92168014121608348C0F848
:10AC70000E40012032BD280001F0B0F92168C1402A
:10AC80002160F3E72020E072206800EE100A03F054
:10AC9000B8F920602068002808D5280001F09EF946
:10ACA0002168494201414842206005E0280001F046
:10ACB00095F9216801412160D8E7280001F08EF95B
:10ACC0002168C1402160D1E7280001F087F921887F
:10ACD00001412180CAE77FF03F0002F029F80020FF
:10ACE000C8E7000038AB032038B5DFF8980BDFF871
:10ACF0000C1609780C2202FB0105DFF8880BDFF83F
:10AD0000FC1589780C2202FB0104200001F0A2F856
:10AD1000002804D1280001F09DF8002805D07FF01C
:10AD2000140002F005F800201EE0E07A20380ED072
:10AD300010380CD0103818D012382ED04F380228C6
:10AD400023D9001F21D00C3803281ED92CE0302035
:10AD5000E072280001F042F9216811FA00F0206049
:10AD60004648C0F80E40012032BD3020E072206815
:10AD700000EE100A03F045F92060280001F02EF9DA
:10AD8000216811FA00F02060EAE7280001F026F9B6
:10AD9000216811FA00F02060E2E7280001F01EF9B6
:10ADA000218840182080DBE77FF03F0001F0C0FFE2
:10ADB0000020D9E738B5DFF8CC0ADFF8401509786C
:10ADC0000C2202FB0105DFF8BC0ADFF83015897898
:10ADD0000C2202FB0104200001F03CF8002804D101
:10ADE000280001F037F8002805D07FF0140001F0AA
:10ADF0009FFF00201DE0E07A20380ED010380CD0E4
:10AE0000103817D012382BD04F38022821D9001F04
:10AE10001FD00C3803281CD929E03020E07228000C
:10AE200001F0DCF82168C14021601448C0F80E40F0
:10AE3000012032BD3020E072206800EE100A03F0DD
:10AE4000E0F82060280001F0C9F82168C1402160C5
:10AE5000EBE7280001F0C2F82168C1402160E4E777
:10AE6000280001F0BBF8218840182080DDE77FF042
:10AE70003F0001F05DFF0020DBE7000090B90320F8
:10AE800010B5DFF8000ADFF8741489780C2202FB91
:10AE90000104200000F0DEFF002817D0200001F0A0
:10AEA000EBF9002805D17FF0030001F041FF0020FD
:10AEB0000BE02068002803D02068032102F091FDF8
:10AEC000DFF8A40CC0F80E40012010BD01220021C3
:10AED000200001F058FCC0B20028F1D0C0B201F04F
:10AEE00027FF0020F1E738B5DFF89809DFF80C14E8
:10AEF00009780C2202FB0105DFF88809DFF8FC1352
:10AF000089780C2202FB0104200000F0A3FF002836
:10AF100004D1280000F09EFF002805D07FF0140027
:10AF200001F006FF002011E002222900200001F0BC
:10AF30002AFCC0B2002804D0C0B201F0F9FE002003
:10AF400004E0DFF8240CC0F80E40012032BD38B513
:10AF5000DFF83009DFF8A41309780C2202FB0105A1
:10AF6000DFF82009DFF8941389780C2202FB010432
:10AF7000200000F06FFF002804D1280000F06AFFD5
:10AF8000002805D07FF0140001F0D2FE002011E06F
:10AF900004222900200001F0F6FBC0B2002804D0F2
:10AFA000C0B201F0C5FE002004E0DFF8BC0BC0F821
:10AFB0000E40012032BD38B5DFF8C808CF49097806
:10AFC0000C2202FB0105DFF8BC08CC4989780C2271
:10AFD00002FB0104200000F03DFF002804D12800FE
:10AFE00000F038FF002805D07FF0140001F0A0FE2B
:10AFF000002011E008222900200001F0C4FBC0B2AB
:10B00000002804D0C0B201F093FE002004E0DFF875
:10B01000580BC0F80E40012032BD10B5DFF86408AF
:10B02000B64989780C2202FB0104200000F012FFCF
:10B03000002805D07FF0140001F07AFE002016E011
:10B04000200000F01BFF002802D00020207001E04B
:10B05000012020701020E072DFF80C1BD1F81600E0
:10B0600021780170DFF8000BC0F80E40012010BD00
:10B0700038B5DFF81008A14909780C2202FB010558
:10B08000DFF800089D4989780C2202FB01042000AA
:10B0900000F0E0FE002804D1280000F0DBFE0028CC
:10B0A00005D07FF0140001F043FE00201BE02000DB
:10B0B00000F0E4FE002807D0280000F0DFFE0028A2
:10B0C00002D00120207001E0002020701020E072EA
:10B0D000DFF8941AD1F8160021780170DFF8880A99
:10B0E000C0F80E40012032BD38B5DFF8980783491B
:10B0F00009780C2202FB0105DFF888077F4989786F
:10B100000C2202FB0104200000F0A4FE002804D160
:10B11000280000F09FFE002805D07FF0140001F009
:10B1200007FE00201BE0200000F0A8FE002804D14C
:10B13000280000F0A3FE002802D00120207001E0CA
:10B14000002020701020E072DFF8FC1BD1F8160000
:10B1500021780170DFF8F00BC0F80E40012032BDFD
:10B1600070B5DFF82007654909780C2202FB01055C
:10B17000DFF81007614989780C2202FB01042000E6
:10B1800000F068FE002804D1280000F063FE0028CB
:10B1900005D07FF0140001F0CBFD00201CE0200062
:10B1A00000F06CFE0600F6B2280000F067FE90EAA0
:10B1B000060F02D00120207001E000202070102036
:10B1C000E072DFF8841BD1F8160021780170DFF8F7
:10B1D000780BC0F80E40012070BD10B5DFF8A40652
:10B1E000464909780C2202FB0101DFF89806434A20
:10B1F00092780C2303FB0204200001F0FBF8C0B29C
:10B20000002805D17FF03F0001F092FD002013E0FF
:10B210001021E172C0B2012801D1012000E000201C
:10B220002070DFF8241BD1F8160021780170DFF8B8
:10B23000180BC0F80E40012010BD10B5DFF8440611
:10B240002E4909780C2202FB0101DFF838062B4A4F
:10B2500092780C2303FB0204200001F0CBF8C0B26B
:10B26000002805D17FF03F0001F062FD002013E0CF
:10B270001021E172C0B2012801D0012000E00020BD
:10B280002070DFF8C41AD1F8160021780170DFF8B9
:10B29000B80AC0F80E40012010BD10B5DFF8E40573
:10B2A000164909780C2202FB0101DFF8D805134A80
:10B2B00092780C2303FB0204200001F09BF8C0B23B
:10B2C000002805D17FF03F0001F032FD002013E09F
:10B2D0001021E172C0B2022801D1012000E000205B
:10B2E0002070DFF8641AD1F8160021780170DFF8B9
:10B2F000580AC0F80E40012010BD0000B4C503205C
:10B3000010B5DFF88005DFF8441A09780C2202FB3B
:10B310000101DFF87005DFF8342A92780C2303FB73
:10B320000204200001F066F8C0B2002805D17FF0C9
:10B330003F0001F0FDFC002016E01021E172C0B2D8
:10B34000022802D0C0B2012801D1012000E0002073
:10B350002070DFF8F419D1F8160021780170DFF8B9
:10B36000E809C0F80E40012010BD10B5DFF8140543
:10B37000DFF8D81909780C2202FB0101DFF8040577
:10B38000DFF8C82992780C2303FB0204200001F0A7
:10B3900031F8C0B2002805D17FF03F0001F0C8FCB1
:10B3A000002013E01021E172C0B2042801D1012075
:10B3B00000E000202070DFF89019D1F81600217805
:10B3C0000170DFF88409C0F80E40012010BD10B5EF
:10B3D000DFF8B004DFF8741909780C2202FB0101D0
:10B3E000DFF8A004DFF8642992780C2303FB020441
:10B3F000200000F0FFFFC0B2002805D17FF03F0021
:10B4000001F096FC002016E01021E172C0B2042881
:10B4100002D0C0B2012801D1012000E0002020703C
:10B42000DFF82419D1F8160021780170DFF8180927
:10B43000C0F80E40012010BD10B50020DFF8440414
:10B44000DFF8081989780C2202FB0104200000F0C3
:10B4500015FDDFF8F428D2F816100870DFF8E808B8
:10B46000C0F80E400120C0B210BD38B5DFF814049A
:10B47000DFF8D81809780C2202FB0104DFF8040475
:10B48000DFF8C81889780C2202FB0105DFF8F40305
:10B49000DFF8B81849780C2202FB0100E07A503836
:10B4A0000ED00D3802280BD9233828D0C01E26D044
:10B4B0007C383FD17FF0140001F03AFC00201DE001
:10B4C0001021280000F09FFC002805D17FF0030028
:10B4D00001F02EFC002011E00020287020680028D8
:10B4E0000BD02068B0F90000002804D42068B0F91F
:10B4F0000000022801DB01202870012032BD10214C
:10B50000280000F080FC002805D17FF0030001F046
:10B510000FFC0020F2E7002028702068002808D0E7
:10B5200020680838B0F90000001E022801D301206D
:10B530002870E2E77FF0140001F0FAFB0020DDE75D
:10B5400070B5DFF84003DFF8041889780C2202FB9D
:10B550000104CC48DFF8F41749780C2202FB0105FE
:10B56000C848DFF8E81709780C2202FB0106200022
:10B5700000F070FC002805D07FF0140001F0D8FB2B
:10B58000002026E0200000F079FC012800D03500E2
:10B59000E97A200000F037FC002805D17FF0030095
:10B5A00001F0C6FB002014E0E07A5F280AD1206891
:10B5B00002F0DEF82868002806D02968206802F02A
:10B5C00071F901E028682060DFF87C07C0F80E40C0
:10B5D000012070BD38B50024AA48DFF870178978BB
:10B5E0000C2202FB0105E87A002801D101241EE0AB
:10B5F000E87A502808D0E87A5D2805D0E87A5E28F5
:10B6000002D0E87A5F2806D12868002801D10124F9
:10B610000DE000240BE0E87A802802D0E87A832845
:10B6200005D12868002801D1012400E00024102160
:10B63000280000F0E8FB002805D17FF0030001F0AE
:10B6400077FB002012E0E4B2002C02D00120287029
:10B6500001E000202870DFF8F016D1F816002978F4
:10B660000170DFF8E406C0F80E50012032BD38B595
:10B6700000248448DFF8D41689780C2202FB0105E7
:10B68000E87A002801D101241EE0E87A502808D089
:10B69000E87A5D2805D0E87A5E2802D0E87A5F284B
:10B6A00006D12868002801D101240DE000240BE018
:10B6B000E87A802802D0E87A832805D12868002813
:10B6C00001D1012400E000241021280000F09BFBA0
:10B6D000002805D17FF0030001F02AFB002012E0D2
:10B6E000E4B2002C02D00020287001E00120287074
:10B6F000DFF85416D1F8160029780170DFF84806F3
:10B70000C0F80E50012032BD80B55FF0FF3001F06F
:10B710000FFB002002BDF8B55A48DFF830168978D3
:10B720000C2202FB01045748DFF8201609780C228E
:10B7300002FB0105002001F03BFF0700380002F08A
:10B7400017F80022DFF80816380002F09CF820688D
:10B750003B000022082102F075F90D21380002F0AB
:10B760008BF8380002F0CDFD380002F001F800221D
:10B77000DFF8E015380002F086F86979380002F049
:10B780007BF83A21380002F077F83021380002F0D7
:10B7900073F8287910F13001C9B2380002F06CF862
:10B7A0000D21380002F068F8380002F0AAFD3800D8
:10B7B00001F0DEFF0022DFF8A015380002F063F888
:10B7C0002668002E05D17FF0150001F0B1FA0020A7
:10B7D0001DE0280000F00CFBC0B2FF2805D17FF06F
:10B7E000140001F0A5FA002011E0009700233200B8
:10B7F0002979687903F0D5F90D21380002F03CF879
:10B80000380002F07EFD380001F053FF0120F2BD48
:10B8100080B55FF0FF3001F08BFA002002BD80B5EB
:10B820005FF0FF3001F084FA002002BD80B55FF0C8
:10B83000FF3001F07DFA002002BD80B55FF0FF30DF
:10B8400001F076FA002002BD80B55FF0FF3001F014
:10B850006FFA002002BD80B5DFF8F004008803F025
:10B86000FFFADFF8F8140868002807D0DFF8EC04C6
:10B870000168DFF8D8040088C0B28847012002BD03
:10B880000120704738AB032080B5B749D1F81200CA
:10B8900000F073FDB449D1F8160000F06EFDB24817
:10B8A000D0F812100868802808D3DFF8B82491680F
:10B8B000884203D201F020F9012004E07FF0020069
:10B8C00001F036FA002002BD80B5A749D1F8120078
:10B8D00000F053FDA449D1F8160000F04EFDA24936
:10B8E000D1F82900A04991F8271011F0FE019E4AD5
:10B8F00082F82710802808D3DFF8682491688842EE
:10B9000003D201F0F9F8012004E07FF0020001F019
:10B910000FFA002002BD10B5DFF83014086802F0FD
:10B9200032FB0400802C04D3DFF838148868A0426E
:10B9300005D27FF0020001F0FBF9002029E0DFF8DA
:10B940000814086803F0CFFB84421DD2DFF8F81317
:10B95000D1F81200A321C17201F0C9F8DFF8E82381
:10B96000D2F812100860DFF8E013D1F8160000F0EA
:10B97000DDFCDFF8D413D1F8120000F0D7FC200072
:10B9800001F0BAF8012004E07FF0020001F0D0F9E4
:10B99000002010BD10B5DFF8D003DFF8B0138978B0
:10B9A0000C2202FB0100C17A852902D1016800291D
:10B9B00001D1002039E000F011FB0400802C04D3F9
:10B9C000DFF8A0138868A04205D27FF0020001F0E2
:10B9D000AFF9002029E0DFF87013086803F083FB5B
:10B9E00084421DD2DFF86013D1F81200A321C17286
:10B9F00001F07DF8DFF85023D2F812100860DFF86C
:10BA00004813D1F8160000F091FCDFF83C13D1F890
:10BA1000120000F08BFC200001F06EF8012004E021
:10BA20007FF0020001F084F9002010BD70B5DFF84E
:10BA30001C13086802F0A7FA80B202F065FD04004A
:10BA40002000002805D17FF0280001F071F90020C6
:10BA50001AE0C64EC24D280000F0CAF9C0B2FF2855
:10BA600005D17FF0140001F063F900200CE0B64826
:10BA7000C0F83E60B4482979C0F83A100020B249B5
:10BA800081F83800A047012070BD80B5B648AF49A5
:10BA900089780C2202FB0100C17A852902D1016854
:10BAA000002901D100201BE000F098FA80B202F0DA
:10BAB0002BFD010000290ED0AC49A34AC2F83E106C
:10BAC000A1490022C1F83A2000219F4A82F838108B
:10BAD0008047012004E07FF0280001F029F90020D0
:10BAE00002BD10B59949086802F04DFA0400802C97
:10BAF00003D39C498868A04205D27FF0020001F080
:10BB000017F900200BE09049086803F0ECFA844232
:10BB100004D2200000F0F0FF012000E0002010BD62
:10BB200010B59148894989780C2202FB010000F088
:10BB300055FA0400802C03D38A498868A04205D2B4
:10BB40007FF0020001F0F4F800200BE07E49086865
:10BB500003F0C9FA844204D2200000F0CDFF012096
:10BB600000E0002010BD000090B9032010B5774917
:10BB7000086802F008FA0400802C03D37949886829
:10BB8000A04205D27FF0020001F0D2F8002011E0BF
:10BB90006D49086803F0A7FA84420AD26A49D1F8CD
:10BBA00016000078002802D0200000F0A5FF012038
:10BBB00000E0002010BD10B56B48644989780C2264
:10BBC00002FB010000F00AFA0400802C03D365494F
:10BBD0008868A04205D27FF0020001F0A9F8002099
:10BBE00011E05949086803F07EFA84420AD25649A6
:10BBF000D1F816000078002802D0200000F07CFF69
:10BC0000012000E0002010BD10B55049086802F086
:10BC1000BAF90400802C03D352498868A04205D2A7
:10BC20007FF0020001F084F8002011E04649086826
:10BC300003F059FA84420AD24349D1F81600007839
:10BC4000002802D1200000F057FF012000E0002072
:10BC500010BD10B544483D4989780C2202FB010013
:10BC600000F0BCF90400802C03D33E498868A04250
:10BC700005D27FF0020001F05BF8002011E03249AC
:10BC8000086803F030FA84420AD22F49D1F816002E
:10BC90000078002802D1200000F02EFF012000E0F3
:10BCA000002010BD10B52949086802F06CF90400A5
:10BCB00000F01DFF10EB8404802C03D32949886811
:10BCC000A04205D27FF0020001F032F8002011E01E
:10BCD0001D49086803F007FA84420AD21A49D1F8CC
:10BCE00016000078002802D0200000F005FF012097
:10BCF00000E0002010BD10B51449086802F043F9B7
:10BD0000040000F0F4FE10EB8404802C03D31549EA
:10BD10008868A04205D27FF0020001F009F80020F7
:10BD200011E00949086803F0DEF984420AD20649A5
:10BD3000D1F816000078002802D1200000F0DCFEC7
:10BD4000012000E0002010BD90B90320B4C50320FD
:10BD5000E4380508803D0508883D050824C3032014
:10BD600040AC0320BCB4032038AB0320E0AB03207D
:10BD700080B500F0AEFF012002BDF0B40168446858
:10BD80008368091801EB5402E40748BF4B440C30A8
:10BD900091422BD011F8014B14F0030504BF11F8A8
:10BDA000015BED1C26090F2E07D111F8016B0F3630
:10BDB00003E011F8017B03F8017B6D1EF9D1002E21
:10BDC000E6D0A40811F8015B04F00304032C08BFBB
:10BDD00011F8014B05EB04241C1BB51CD8D014F83A
:10BDE000016B03F8016B6D1EF9D1D1E7F0BC704710
:10BDF00080B5C17AC22901D0FF2003E001794079E2
:10BE000002F07CFE02BD38B504000D00002C01D10B
:10BE100000201EE0EDB25F2D0ED1E07A5F2802D146
:10BE20002068002804D1012001F0C2FB206002E05C
:10BE3000206801F09DFC0AE0E07A5F2807D12068C5
:10BE4000002804D0206801F034FC00202060E57256
:10BE5000012032BDC17A502908D0C17A5D2905D0B0
:10BE6000C17A5E2902D0C17A5F2904D10168002914
:10BE700001D0012000E00020C0B2704738B50400B6
:10BE80000025002C02D12800C0B263E02000FFF79B
:10BE9000E1FF002808D0EDB2002D01D0012500E01F
:10BEA00000252800C0B255E0E07A002816D01038EE
:10BEB00016D0103816D010381BD0103820D02038AB
:10BEC00038D0401E28D0401E2DD03F38022837D908
:10BED000001F35D00C38032832D938E0002537E070
:10BEE000257835E02068002801D1002500E00125F3
:10BEF0002EE02068002801D1002500E0012527E080
:10BF0000206800EE100AB5EE400AF1EE10FA01D1F9
:10BF1000002500E001251BE06068002801D1002514
:10BF200000E0012514E02068002801D1002500E090
:10BF300001250DE02068002801D1002500E0012541
:10BF40002068002801D1002500E0012500E000253F
:10BF50002800C0B232BD10B50400002C01D1002071
:10BF60003BE02000FFF776FF002801D0002034E0FE
:10BF7000E07A103816D0103816D0103814D0103897
:10BF800014D0203820D0401E16D0401E16D02338A2
:10BF90001CD01C3802281BD9001F19D00C380328CC
:10BFA00016D919E0207818E0206816E0206800EE25
:10BFB000100A02F026F810E060680EE020684FF4E6
:10BFC0007A71B0FBF1F008E0206806E0206804E038
:10BFD00020688000800800E0002010BD10B504003B
:10BFE000002C01D100203BE02000FFF733FF0028A8
:10BFF00001D0002034E0E07A103816D0103816D086
:10C00000103814D0103814D0203820D0401E16D04C
:10C01000401E16D0233820D01C38022819D9001F02
:10C0200017D00C38032814D919E0207818E02068BC
:10C0300016E0206800EE100A01F0E3FF10E06068EF
:10C040000EE020684FF47A71B0FBF1F008E0206850
:10C0500006E020688000800802E0206800E0002000
:10C0600010BD000010B50400002C02D19FED2D0A78
:10C0700057E02000FFF7EEFE002802D09FED290ACE
:10C080004FE0E07A103816D010381AD0103818D097
:10C0900010381CD020382ED0401E1CD0401E20D07E
:10C0A00023382ED01C38022831D9001F2FD00C384D
:10C0B00003282CD933E0207800EE100AB8EE400AAD
:10C0C0002FE0206800EE100AB8EEC00A29E02068D0
:10C0D00000EE100A25E0606800EE100AB8EE400A93
:10C0E0001FE020684FF47A71B0FBF1F000EE100A07
:10C0F000B8EE400A15E0206800EE100AB8EE400ADB
:10C100000FE0206800EE100AB8EE400A09E020684F
:10C110008000800800EE100AB8EE400A01E09FEDB2
:10C12000010A10BD0000000070B5060008001500EF
:10C13000002E01D0002D01D128009CE0F17A1039A9
:10C1400021D0103926D010392CD0103932D01039E6
:10C150005DD0891E4FD00B39022958D9C91E41D054
:10C16000491E2FD0491E35D0233970D01C390229E1
:10C170005BD9091F59D00C39032956D90F395DD025
:10C1800030396CD073E02A000100C9B2307801F078
:10C1900080FC6FE033682A000100C9B2180001F08A
:10C1A000BBFC67E033682A000100C9B2180001F047
:10C1B000D4FC5FE0316800EE101A2900C0B201F033
:10C1C00015FD57E073682A000100C9B2180001F09C
:10C1D0007EFD4FE033682A000100C9B2180001F06B
:10C1E000E4FD47E0316874682B000200D2B2200001
:10C1F00001F090FE3EE0C0B2002802D0280001F01D
:10C20000B7FAB6F90010280001F045FB32E0C0B2E1
:10C21000002802D0280001F0ABFA3068002803D0D3
:10C220003168280001F03EFB24E033682A00010059
:10C23000C9B29800800801F090FC1BE033682A0026
:10C240000100C9B29800800801F087FC12E0336851
:10C250002A000100C9B2180001F07FFC0AE033682F
:10C260002A000100C9B2180001F077FC02E02800A2
:10C2700001F07EFA280070BD38B50400E07A50382D
:10C2800002D00D38012811D825685F212000FFF762
:10C29000BAFD002801D1002009E0206801F068FA09
:10C2A000002D03D02068290001F0FCFA012032BDE6
:10C2B00070B504000020002C05D14A497FF00A0225
:10C2C0000A60C0B212E0484D0120002601E00C35A2
:10C2D000761C182E09DA2100F140C907F7D528008D
:10C2E00000F024F8C0B20028F1D1C0B270BD70B522
:10C2F00004000020002C05D13A497FF00A020A60B0
:10C30000C0B212E0394D0120172601E00C3D761E27
:10C31000002E09D42100F140C907F7D5280000F00C
:10C320002CF8C0B20028F1D1C0B270BD30B40028E2
:10C3300005D12C487FF00A01016000201BE02C4A47
:10C34000516A2B4BDA6B891A294BDA6B0C32284C69
:10C35000236B274D6C6DA418A34205D221487FF0B2
:10C3600020010160002006E0214BDA6382688A60C8
:10C3700002680A60012030BC704770B50400002CD0
:10C3800005D118487FF00A010160002028E0184913
:10C39000C86B0C2805D213487FF00D010160002006
:10C3A0001EE01349C86BB0F10C051149486A461BE1
:10C3B000E07A5F280DD1F07A5F2807D120683168D4
:10C3C000884206D0206801F074F902E0206801F08C
:10C3D00070F90748C563B068A0603068206001202C
:10C3E00070BD000070AC032038AB03204CAC0320C0
:10C3F000F0B6032038B52DED048B04000D00E07A73
:10C40000103825D010382DD0103873D0103800F0E7
:10C41000B980103800F08781801E00F07A810B38D7
:10C42000022840F28081C01E00F02081401E00F0F2
:10C43000F180401E00F004813F38022840F2218143
:10C44000001F00F01E810C38032840F21A8195E18C
:10C45000E87A102804D12978207801F03AFE00E02B
:10C4600000208CE1E87A20380ED0103811D0103836
:10C4700014D008381DD05938022834D9001F32D0C2
:10C480000C3803282FD933E02968206801F011FE09
:10C490002FE02968206801F00CFE2AE0286800EEF1
:10C4A000900A206800EE100AB8EEC00A01F031FED2
:10C4B0001FE0286800EE100A256810EE100A01F04F
:10C4C000D1FE41EC110BB0EE418AF0EE618A2800FA
:10C4D00001F0B0FE41EC100BB0EE481AF0EE681A15
:10C4E00001F02FFE05E02968206801F0E2FD00E080
:10C4F000002044E1E87A20380ED0103811D01038EE
:10C5000014D008381DD05938022834D9001F32D031
:10C510000C3803282FD933E02968206801F0C9FDC1
:10C520002FE02968206801F0D4FD2AE0286800EE99
:10C53000900A206800EE100AB8EE400A01F0E9FD0A
:10C540001FE0286800EE100A256810EE100A01F0BE
:10C5500089FE41EC110BB0EE418AF0EE618A2800B1
:10C5600001F072FE41EC100BB0EE481AF0EE681AC2
:10C5700001F0E7FD05E02968206801F0AAFD00E070
:10C580000020FCE0E87A202806D030280FD0402890
:10C5900018D048281FD03BE0286800EE900A206899
:10C5A00000EE100AF8EEE00A01F0B3FD31E0286871
:10C5B00000EE900A206800EE100AF8EE600A01F022
:10C5C000A8FD26E0286800EE900A206800EE100A18
:10C5D00001F09FFD1DE0286800EE100A206809EEBA
:10C5E000100A10EE100A01F03DFE41EC110BB0EE06
:10C5F000418AF0EE618A19EE100A01F033FE41EC37
:10C60000100BB0EE481AF0EE681A01F09AFD00E047
:10C610000020B4E0E87A602806D061280ED169686D
:10C62000606801F056FD0AE02868002804D16968B6
:10C63000606801F04EFD00E0002000E000209EE078
:10C64000E87A602806D062280ED12968206801F0B7
:10C6500040FD0AE06868002804D12968206801F0DC
:10C6600038FD00E0002000E0002088E0E87A603833
:10C67000022804D82968206801F03BFD00E0002072
:10C680007DE0E87A20380ED0103811D0103814D060
:10C6900008381DD05938022834D9001F32D00C3840
:10C6A00003282FD933E02968206801F002FD2FE02C
:10C6B0002968206801F00DFD2AE0286800EE900A44
:10C6C000206800EE100AB8EE400A01F022FD1FE0DB
:10C6D000286800EE100A256810EE100A01F0C2FD6D
:10C6E00041EC110BB0EE418AF0EE618A280001F0B6
:10C6F000ABFD41EC100BB0EE481AF0EE681A01F0F9
:10C7000020FD05E02968206801F0E3FC00E000203E
:10C7100035E0E87A522804D12988208801F0D9FC34
:10C7200000E000202BE02800FFF794FB002801D157
:10C73000002025E0206800281ED0286800281BD093
:10C74000206821680022C9780818027128682968C1
:10C750000022C9780818027128682268011D101D7E
:10C7600002F028FD012801DB042006E0002801D5A5
:10C77000022002E0012000E0002000E00020C0B222
:10C78000BDEC048B32BD30B4002802D17FF00A002A
:10C790006AE000230024C37A203B0CD0103B1CD05D
:10C7A000223B1ED04F3B022B19D91B1F17D00C3B2D
:10C7B000032B14D919E00368002B02D57FF03F004A
:10C7C00052E03023C3720368D2B2012A14D1C17A75
:10C7D00030290DD1D94301600CE00368F4E7036808
:10C7E000F2E73023C3720388EEE77FF03F003BE0BF
:10C7F000D9430160002037E0002902D17FF00A0010
:10C8000032E0CC7A203C0CD0103C20D0223C22D00C
:10C810004F3C022C1DD9241F1BD00C3C032C18D9D3
:10C820001BE00C68002C02D57FF03F001CE00C6878
:10C83000D2B2022A04D0042A18D0082A21D02BE030
:10C84000C17A30290CD114EA030101600BE00C68B5
:10C85000EEE70C68ECE70C88EAE77FF03F0003E0C6
:10C8600014EA03010160002030BC7047C17A30290E
:10C8700003D154EA0301016002E054EA03010160BC
:10C88000F1E7C17A302903D194EA0301016002E0A3
:10C8900094EA03010160E6E77FF03F00E4E7036804
:10C8A0001AB95A1E026008467047197800290FBF4E
:10C8B0004FF0FF30591C01601878704710B5040024
:10C8C000200000F09BFA200002F096FC02F01CFE13
:10C8D000DFF80005DFF800150863DFF80005DFF872
:10C8E000F814C1F81200DFF8F804DFF8EC14C1F80E
:10C8F000160000F009F8012010BD80B502F0C8FC58
:10C9000000F05CFB012002BD0020DFF8CC1448726F
:10C910000020DFF8C4140872DFF8BC040021C0F85E
:10C920000E100020DFF8B01481F826000020DFF898
:10C93000A814A1F827000020DFF89C14C885002067
:10C94000DFF8941481F82D00DFF88C040021C0F882
:10C950001A10DFF884040021C0F81E10012070476F
:10C9600080B5DFF874241060DFF86C04416000F0DB
:10C9700024F8C0B2002807D0DFF86804016BDFF8A4
:10C980006404C06A00F08FFAC0B2002801D000F041
:10C990004CF8C0B2002801D000F06CF8C0B202BD63
:10C9A00080B500200020009080230022DFF834149E
:10C9B000002000F0D1F9C0B202BD80B5FFF7F0FF52
:10C9C000C0B200282FD0DFF81C14097843290ED1FB
:10C9D000DFF810144978522909D1DFF80814897852
:10C9E000412904D1DFF8FC13C978422901D0002085
:10C9F0001AE0DFF8F0138968B1F1807F01D30020DD
:10CA000012E0DFF8E013097F00290CD1DFF8D4131E
:10CA1000497F002907D10A21DFF8C82311770421B3
:10CA2000DFF8C0235177C0B202BD38B5DFF8B403D8
:10CA3000C46A002C01D101201BE0B4F5806F01D93C
:10CA40004FF48064DFF8A0030169091DA4000120F0
:10CA500000902300DFF88C038268002000F07CF94E
:10CA6000DFF88403C568211D0022280000F0E4FCE3
:10CA7000012032BD10B582B00020DFF86C130887AA
:10CA80000020DFF864134887DFF85803006B0028A4
:10CA900001D1012021E0B0F5806F01D94FF4806011
:10CAA000DFF840138968DFF83C23D26A11EB820279
:10CAB000DFF83433596901230093C300002000F0EC
:10CAC0004BF9DFF82413486BDFF81C138C69410025
:10CAD0000022200000F0B0FC012016BDDFF8F802B3
:10CAE000407A7047DFF8F012D1F822007047DFF883
:10CAF000E812D1F81A007047DFF8DC12C1F81A000A
:10CB00000120704780B5DFF8D012D1F81A00DFF8A5
:10CB1000C812C1F82200DFF8C00290F826000028F1
:10CB200008D0DFF8B412D1F82200DFF8C01202F00A
:10CB300035FC0BE0DFF8A002D0F8222000200090A6
:10CB40000423DFF8A812002000F006F9C0B202BDED
:10CB5000DFF89802C078002809D0DFF89002C0788A
:10CB6000FF2804D0DFF88402C078A72801DB00206A
:10CB700000E00120704780B5DFF85C12D1F81A00A0
:10CB8000DFF860128968884201D3002010E0FFF7C7
:10CB9000B9FF00280BD0DFF84012D1F81A00DFF8F7
:10CBA0003812001DC1F81A00FFF7D2FF00E0002084
:10CBB00002BD38B50024FFF7CBFF002826D0DFF8F0
:10CBC0003002DFF82812C978052202FB0100D0F8F4
:10CBD0000150DFF81C02DFF81412C978052202FBAD
:10CBE000010000782900002908D0C0B250F480402C
:10CBF00080B202F035F9A84704000EE05FF0FF3084
:10CC000000F096F800207449487206E05FF0FF30AB
:10CC100000F08EF80020704948722000C0B232BD8A
:10CC200010B582B06C48447A02F079F9002827D018
:10CC3000694890F8270010F00100002820D16846CC
:10CC400002F0FAF900281AD0FFF751FF6249C1F843
:10CC50002900614890F8270050F001005E4981F8F2
:10CC600027005D49D1F81600FFF760FB5A49D1F85B
:10CC70001200FFF75BFB0098FFF73EFF00E0002487
:10CC80002000C0B216BD80B5002000F059F903F0B5
:10CC900041FAFFF739FE50480068002803D1002010
:10CCA0004D49487212E04C488021C0F81A10514892
:10CCB000007A002807D04B488168002002F0F3FA80
:10CCC000454981F826000120434948724248407A8C
:10CCD00002BD0020404948720120704730B583B042
:10CCE00004000D00002D01D1002020E00120009063
:10CCF0000123220001A9002000F02EF8C0B2002874
:10CD000001D1C0B213E09DF8041000290ED001201B
:10CD100000909DF80430621C291D002000F01CF8D2
:10CD2000C0B2002802D09DF80410E970C0B23EBD28
:10CD300010F1630F02D13049086802E02649C1F8BA
:10CD40000A002021244A126BD1722349096B086022
:10CD500070472949086870472DE9F0410C0015001B
:10CD60001E00C0B2002802D001280CD00FE01A48E3
:10CD7000D0F80080404602F0C8F9070017F1010F13
:10CD800007D1002024E01448D0F80480F2E7002006
:10CD90001EE0AF4209D000222900404602F0C7F948
:10CDA00010F1010F01D1002012E0320021004046B5
:10CDB00002F0D3F910F1010F01D1002008E006982C
:10CDC000002804D000223900404602F0B0F90120CA
:10CDD000BDE8F08134AC032090B9032058AC0320A7
:10CDE00064AC0320BCB40320F0B60320B4C5032018
:10CDF00098A00320A4B7032070AC032080B501687D
:10CE0000DFF82C2611604268DFF824365A60026988
:10CE1000DFF81C365A63DFF818269160DFF8102619
:10CE2000D160DFF80C261161DFF804265161DFF8CC
:10CE300000269161DFF8F825D161DFF8F425116251
:10CE4000DFF8EC150968DFF8E825526851184269E7
:10CE5000DFF8DC359A64DFF8D825926C7FF00303A5
:10CE600003FB0211DFF8C825D1620022DFF8C035CC
:10CE7000DA640022DFF8B8351A658269DFF8B00598
:10CE80000264DFF8AC05006C7FF0030202FB0011C6
:10CE9000DFF89C0581620839DFF8940541620120C2
:10CEA00000F04EF802BD10B40022DFF884351B6894
:10CEB000401CB0F5806F01D94FF48060B1F5806FF0
:10CEC00001D94FF48061DFF86845E36013EB80031C
:10CED00012EB8002DFF85845236113EB800312EB5D
:10CEE0008002DFF84C05436113EBC10312EBC10272
:10CEF000DFF83C058361DFF83805406B13EB400336
:10CF0000DFF82C05406B12EB4002DFF82405C3610B
:10CF1000DFF81C054068801AC008DFF814150863A4
:10CF2000DFF80C054068904207D27FF00100DFF87F
:10CF30000415C1F83801002000E0012010BC704742
:10CF400038B504000020DFF8E814C8630020DFF8DB
:10CF5000E01448650020DFF8D81488650020DFF869
:10CF6000D01408870020DFF8C81448870020DFF8B5
:10CF7000C014486400F0ECFAD0210022DFF8B45469
:10CF8000280000F059FA002007E0411CDFF8A42433
:10CF90000C2303FB00229172401C1A28F5DBE4B23B
:10CFA000002C09D0DFF8880441680022DFF88004F3
:10CFB0000468200000F040FA012032BD80B500F086
:10CFC000C7FA012002BD10B5002807D17FF00A0082
:10CFD000DFF86014C1F8380100202CE0DFF850249D
:10CFE000526D8A18DFF84834DB6B9A18DFF840344A
:10CFF0005B689A4207D37FF01F00DFF83814C1F84E
:10D000003801002017E0B122C272DFF82424D2696F
:10D01000DFF81C345B6D9A1802604160DFF8102461
:10D02000526D8A18DFF808345A650468002220001F
:10D0300000F002FA012010BD002807D17FF00A009D
:10D04000DFF8F013C1F83801002029E00168002959
:10D0500002D04168002901D1012021E0DFF8D0137E
:10D06000496D002905D04168DFF8C423526D8A421A
:10D0700007D27FF00B00DFF8BC13C1F838010020A5
:10D080000EE04168DFF8A823526D511ADFF8A023A3
:10D0900051650021C1720021016000214160012021
:10D0A00070472DE9F0470500884691469A46089C4E
:10D0B000E4B204FB08F717F1080004F0ECFB0600EB
:10D0C000002E01D100201CE0C6F804800020308032
:10D0D0001FFA89F9B9F1000F08D05FFA8AFABAF19C
:10D0E0004D0F03D159F40040708002E086F803A090
:10D0F000B470083600223900300000F09DF92E602F
:10D100000120BDE8F08780B5002801D100201DE096
:10D110000838B0F90010002902D44168002907D16D
:10D120007FF00C00DFF80C13C1F8380100200DE08F
:10D13000B0F90010012902DB0188491E0180B0F915
:10D140000010002901D104F062FD012002BD2DE98B
:10D15000FC4707000D001E00002A02D17FF01400DA
:10D1600019E00A9C012A05D0C0F09080032A46D01D
:10D1700013D38BE0E4B200943300DBB200222968C1
:10D1800001A8FFF78EFF002802D17FF00C0002E01B
:10D19000019838600020BDE8F68704200090412304
:10D1A0000022296801A8FFF77CFF002802D17FF048
:10D1B0000C00F0E701983860019F5FF000080BE079
:10D1C000019838603F1D0198083801900198C67099
:10D1D0000198847018F10108286880450ED220005B
:10D1E000C0B200903300DBB20022696801A8FFF7EB
:10D1F00058FF0028E4D17FF00C00CCE7CAE70420F8
:10D20000009041230022296801A8FFF74AFF002867
:10D2100002D17FF00C00BEE701983860019F5FF0FB
:10D22000000801E018F10108286880452DD204208B
:10D23000009041230022696801A8FFF732FF00280F
:10D2400002D17FF00C00A6E7019838603F1DDDF8A1
:10D2500004905FF0000A06E00198C9F8000019F197
:10D2600004091AF1010A68688245DBD22000C0B2C5
:10D2700000903300DBB28322A96801A8FFF711FFF9
:10D280000028E9D17FF00C0085E783E77FF03C00C0
:10D2900081E730B4002A02D17FF03C001EE0002B71
:10D2A00002D01C68002C02D17FF0180016E0012A81
:10D2B00004D06ED3032A36D012D36AE01A68083A33
:10D2C00054680D68A54202D37FF00C0006E01C688C
:10D2D0000968927802FB01410160002030BC704770
:10D2E0001A68083A54680A68A24202D37FF00C0018
:10D2F000F4E71A680B6812EB83031A68002A02D15C
:10D300007FF01800EAE71A68083A54684D68A542A9
:10D3100002D37FF00C00E1E71B684968927802FBBA
:10D3200001310160D9E71A68083A54680A68A242D4
:10D3300002D37FF00C00D1E71A680B6812EB83036D
:10D340001A68002A02D17FF00C00C7E71A68083A71
:10D3500054684A68A24202D37FF00C00BEE71A6804
:10D360004B6812EB83031A68002A02D17FF0180081
:10D37000B4E71A68083A54688D68A54202D37FF072
:10D380000C00ABE71B688968927802FB01310160F1
:10D39000A3E77FF03C00A1E7002806D57FF03C0022
:10D3A0002449C1F83801002018E02149496C204A7D
:10D3B000126C914206DB7FF001001E49C1F8380172
:10D3C00000200BE01A49896A194A526C41F8220080
:10D3D0001748406C401C16494864012070470029DA
:10D3E00001D0002806D17FF001001249C1F83801B0
:10D3F00000201BE00E4A526C8A4214DA7FF00100D2
:10D400000C49C1F83801002010E0491E084A526C4E
:10D41000521E074B5A64064A926A054B5B6C52F8DF
:10D42000232040F821200029EFD10120704700007F
:10D43000F0B6032038AB032062F30F2262F31F42E1
:10D44000401810F0030308D0C91A1FD3DB0748BFE8
:10D4500000F8012D28BF20F8022D130030B4144627
:10D460001546103928BF20E93C00FAD8490728BFE3
:10D4700020E90C0048BF40F8042D890028BF20F89F
:10D48000022D48BF00F8012D30BC7047C91818BFE5
:10D4900000F8012DCB0728BF00F8012D70478268E6
:10D4A000521C8260426832B10268531C03601170E2
:10D4B0004168491E41607047002200E0401C03782B
:10D4C000002B05D0521C0029F8D08A42F6DBFFE77A
:10D4D0001000704738B504000025E4B2601D04F068
:10D4E000DAF9050000202880AC700020E870E4B272
:10D4F000611C00222C1D2000FFF79EFF280032BD7A
:10D5000080B5B0F90010012902DB0188491E0180B5
:10D51000B0F90010002902D104F079FB002002BD0F
:10D5200070B504000D00EDB2002D04D1FF212000E4
:10D53000FFF7C2FF05002800C0B2FFF7CBFF0600CF
:10D540002A00D2B22100300000F09DF9300070BDF9
:10D5500010B5DFF87405C46CDFF86C15886C002812
:10D5600004D0DFF86415C86A002815D100201EE039
:10D57000DFF85415C86A10EB840050F8040C00283A
:10D5800009D004F044FBDFF84015C86A002110EB15
:10D59000840040F8041C641E002CE9D1DFF8280543
:10D5A0000021C164DFF8200500210165012010BDC4
:10D5B00038B504000020DFF81025D16CDFF80835FD
:10D5C0009A6C914204DADFF80025916C002901D1B0
:10D5D00000206DE0DFF8F024116D01291CDBDFF87D
:10D5E000E824916CDFF8E0341A6D914214DBDFF827
:10D5F000D824D16ADFF8D0341A6D11EB820151F8CA
:10D60000045CB5F90010002906D1DFF8BC14086DE0
:10D61000DFF8B41400220A65002811D1DFF8A8143D
:10D62000C86C00E0401E00280AD0DFF89C24D16AB4
:10D6300011EB800151F8045CB5F900100029F1D11B
:10D6400000281ED1DFF88024D16CDFF87C349A6C7E
:10D65000914216DA4FF4827004F01DF90500DFF8EC
:10D660006814C86ADFF86024D16C40F82150DFF8F4
:10D670005814C86CDFF85014401CC864DFF8481414
:10D68000C86C012813DBDFF840140865404228808D
:10D69000FF20A8700020E870E4B2002C05D0FF2124
:10D6A00000222C1D2000FFF7C7FE280000E000200C
:10D6B00032BDDFF81424916CDFF80C34DA6C91423F
:10D6C0000ADBDFF80424916C002905D0002803D080
:10D6D000B0F90010012901DB002048E0B0F900108A
:10D6E0004942002914D0DFF8E0339A6C8A420FD304
:10D6F000DFF8D433DA6A12EB810252F8042C90423C
:10D7000006D100220280DFF8C003016501202EE06F
:10D71000DFF8B423116D002911D0DFF8AC339A6C17
:10D720008A420CD3DFF8A033DA6A12EB810151F898
:10D73000041C884203D100210180012017E0DFF89A
:10D740008823D16C00E0491E00290FD0DFF8783320
:10D75000DA6A12EB810252F8042C9042F3D10022D3
:10D760000280DFF864030165012000E000207047BB
:10D7700038B50400002C01D1002008E00020E07042
:10D78000A1780022251D2800FFF756FE200032BD9B
:10D7900038B50400002C01D1002010E0A078E17819
:10D7A000411AC9B2002901D1200008E0251DE07806
:10D7B0004519C9B200222800FFF73EFE200032BD05
:10D7C0008378C9B2994201D3002009E0C9B20B188D
:10D7D0001A71C278C9B24B1C9A4201DA491CC17055
:10D7E000704770B504000D0016001800A178EDB266
:10D7F0008D4201D300201DE0C0B2002803D1FF21DB
:10D800003000FFF759FE211DEDB2691805E03278AE
:10D810000A70761C401E491C6D1CA278EDB2954220
:10D8200002D2C0B20028F2D1E078EDB2A84200D214
:10D83000E570200070BD81B08378C9B2994201D3F0
:10D84000002017E0ADF800209DF80020C9B20B18A9
:10D850001A719DF80120002A05D0491C9DF801206D
:10D86000C9B20B181A71C278C9B24B1C9A4201DABC
:10D87000491CC17001B0704780B50A00D2B2C178AE
:10D88000FFF79EFF02BD80B51300DBB20A00C1782E
:10D89000FFF7A7FF02BD80B50A0012B2C178FFF7FB
:10D8A000CAFF02BD80B5CB780A1DC178FFF799FF8A
:10D8B00002BD10B50400C878A278904201D3A378C5
:10D8C00000E0CB78DBB20A1D00212000FFF789FFC2
:10D8D0002000FFF75DFF10BD38B504000D002000EB
:10D8E000FFF746FF002229002000FFF7CCFF32BDE2
:10D8F0002DE9F84307008846914627245C255FFA06
:10D9000089F9B9F1000F03D13C707C7002204FE01F
:10D910005FFA89F90026B9F1000F04D1FF214046D2
:10D92000FFF7CAFD8146002098F8001020291BDA75
:10D93000C0B2002802D03C707F1C761C3D707F1C5A
:10D94000782038707F1C98F80000C0B2000900F001
:10D950006FF838707F1C98F8000000F069F8387094
:10D960007F1C361D002016E0C0B2002803D13C7099
:10D970007F1C761C012098F80010E4B2A14205D16A
:10D980003C707F1C3C707F1CB61C04E098F80010B3
:10D9900039707F1C761C18F10108B9F10109B9F141
:10D9A000010FC1DAC0B2002801D03C70761C3000F3
:10D9B000BDE8F28370B504000D00261DD2B2002A26
:10D9C00003D02000FFF7D4FE01E0E0788619EA7862
:10D9D000291D3000FFF78CFFE1784018E07020002F
:10D9E00070BD30B4C278031D0EE0E4B2B4F141055D
:10D9F0001A2D07D2C9B2022902D0C9B2032901D116
:10DA000020341C705B1C521ED2B2002A0ED01C782F
:10DA1000E4B2B4F161051A2DE7D2C9B2012902D0EE
:10DA2000C9B20329EED1203C1C70EBE730BC704733
:10DA300010F00F00C0B20A2801DB373000E03030B0
:10DA4000C0B270472DE9F04104000D001E00D2B2B3
:10DA5000002A02D03000FFF78BFEF0782818B1784A
:10DA6000814201D2300012E0F070801910F10308F9
:10DA7000002709E02000C0B2FFF7DAFF88F80000B5
:10DA8000B8F1010824097F1CAF42F3D33000BDE890
:10DA9000F08138B504001500C9B2002902D0280071
:10DAA000FFF766FEE4B2002C06D10522DFF834143D
:10DAB0002800FFF7E8FE05E00422DFF82C14280018
:10DAC000FFF7E1FE32BD0000F0B6032038B50400D8
:10DAD0001500C9B2002902D02800FFF749FEE4B2C0
